{
  "_format": "hh-sol-artifact-1",
  "contractName": "RoyaltyFactory",
  "sourceName": "contracts/RoyaltyFactory.sol",
  "abi": [
    {
      "inputs": [],
      "stateMutability": "nonpayable",
      "type": "constructor"
    },
    {
      "anonymous": false,
      "inputs": [
        {
          "indexed": true,
          "internalType": "address",
          "name": "previousOwner",
          "type": "address"
        },
        {
          "indexed": true,
          "internalType": "address",
          "name": "newOwner",
          "type": "address"
        }
      ],
      "name": "OwnershipTransferred",
      "type": "event"
    },
    {
      "anonymous": false,
      "inputs": [
        {
          "indexed": true,
          "internalType": "address",
          "name": "contractAddress",
          "type": "address"
        },
        {
          "indexed": false,
          "internalType": "string",
          "name": "albumName",
          "type": "string"
        },
        {
          "indexed": true,
          "internalType": "address",
          "name": "creator",
          "type": "address"
        }
      ],
      "name": "RoyaltyContractCreated",
      "type": "event"
    },
    {
      "inputs": [
        {
          "internalType": "string",
          "name": "albumName",
          "type": "string"
        },
        {
          "internalType": "string",
          "name": "artistName",
          "type": "string"
        },
        {
          "internalType": "string",
          "name": "musicCID",
          "type": "string"
        },
        {
          "internalType": "string",
          "name": "coverCID",
          "type": "string"
        },
        {
          "internalType": "uint256",
          "name": "albumPrice",
          "type": "uint256"
        },
        {
          "internalType": "uint256",
          "name": "commercialPrice",
          "type": "uint256"
        },
        {
          "internalType": "address[]",
          "name": "payees",
          "type": "address[]"
        },
        {
          "internalType": "uint256[]",
          "name": "shares_",
          "type": "uint256[]"
        }
      ],
      "name": "createRoyaltyDistributor",
      "outputs": [
        {
          "internalType": "address",
          "name": "",
          "type": "address"
        }
      ],
      "stateMutability": "nonpayable",
      "type": "function"
    },
    {
      "inputs": [
        {
          "internalType": "uint256",
          "name": "",
          "type": "uint256"
        }
      ],
      "name": "deployedContracts",
      "outputs": [
        {
          "internalType": "contract RoyaltyDistributor",
          "name": "",
          "type": "address"
        }
      ],
      "stateMutability": "view",
      "type": "function"
    },
    {
      "inputs": [],
      "name": "getDeployedContracts",
      "outputs": [
        {
          "internalType": "contract RoyaltyDistributor[]",
          "name": "",
          "type": "address[]"
        }
      ],
      "stateMutability": "view",
      "type": "function"
    },
    {
      "inputs": [],
      "name": "owner",
      "outputs": [
        {
          "internalType": "address",
          "name": "",
          "type": "address"
        }
      ],
      "stateMutability": "view",
      "type": "function"
    },
    {
      "inputs": [],
      "name": "renounceOwnership",
      "outputs": [],
      "stateMutability": "nonpayable",
      "type": "function"
    },
    {
      "inputs": [
        {
          "internalType": "address",
          "name": "newOwner",
          "type": "address"
        }
      ],
      "name": "transferOwnership",
      "outputs": [],
      "stateMutability": "nonpayable",
      "type": "function"
    }
  ],
  "bytecode": "0x608060405234801561001057600080fd5b5061001a3361001f565b61006f565b600080546001600160a01b038381166001600160a01b0319831681178455604051919092169283917f8be0079c531659141344cd1fd0a4f28419497f9722a3daafe3b4186f6b6457e09190a35050565b6124db8061007e6000396000f3fe60806040523480156200001157600080fd5b50600436106200006a5760003560e01c8063715018a6146200006f5780637a1284bc146200007b5780638da5cb5b14620000af5780639ad1ee1014620000c1578063aa9a068f14620000d8578063f2fde38b14620000f1575b600080fd5b6200007962000108565b005b620000926200008c366004620005ba565b62000120565b6040516001600160a01b0390911681526020015b60405180910390f35b6000546001600160a01b031662000092565b62000092620000d2366004620006d7565b62000203565b620000e26200022e565b604051620000a69190620006f1565b620000796200010236600462000740565b62000292565b6200011262000315565b6200011e600062000371565b565b60008089898989898989896040516200013990620003c1565b6200014c989796959493929190620007eb565b604051809103906000f08015801562000169573d6000803e3d6000fd5b506001805480820182556000919091527fb10e2d527612073b26eecdfd717e6a320cf44b4afac2b0732d9fcbe2b7fa0cf60180546001600160a01b0319166001600160a01b03831690811790915560405191925033917fd2f70497a37829d3a2bf6615b1ec8b1427ffc621ff7bfb5b9a9daf1ccc4d1e5890620001ee908e90620008bc565b60405180910390a39998505050505050505050565b600181815481106200021457600080fd5b6000918252602090912001546001600160a01b0316905081565b606060018054806020026020016040519081016040528092919081815260200182805480156200028857602002820191906000526020600020905b81546001600160a01b0316815260019091019060200180831162000269575b5050505050905090565b6200029c62000315565b6001600160a01b038116620003075760405162461bcd60e51b815260206004820152602660248201527f4f776e61626c653a206e6577206f776e657220697320746865207a65726f206160448201526564647265737360d01b60648201526084015b60405180910390fd5b620003128162000371565b50565b6000546001600160a01b031633146200011e5760405162461bcd60e51b815260206004820181905260248201527f4f776e61626c653a2063616c6c6572206973206e6f7420746865206f776e65726044820152606401620002fe565b600080546001600160a01b038381166001600160a01b0319831681178455604051919092169283917f8be0079c531659141344cd1fd0a4f28419497f9722a3daafe3b4186f6b6457e09190a35050565b611bd480620008d283390190565b634e487b7160e01b600052604160045260246000fd5b604051601f8201601f1916810167ffffffffffffffff81118282101715620004115762000411620003cf565b604052919050565b600082601f8301126200042b57600080fd5b813567ffffffffffffffff811115620004485762000448620003cf565b6200045d601f8201601f1916602001620003e5565b8181528460208386010111156200047357600080fd5b816020850160208301376000918101602001919091529392505050565b600067ffffffffffffffff821115620004ad57620004ad620003cf565b5060051b60200190565b80356001600160a01b0381168114620004cf57600080fd5b919050565b600082601f830112620004e657600080fd5b81356020620004ff620004f98362000490565b620003e5565b8083825260208201915060208460051b8701019350868411156200052257600080fd5b602086015b8481101562000549576200053b81620004b7565b835291830191830162000527565b509695505050505050565b600082601f8301126200056657600080fd5b8135602062000579620004f98362000490565b8083825260208201915060208460051b8701019350868411156200059c57600080fd5b602086015b84811015620005495780358352918301918301620005a1565b600080600080600080600080610100898b031215620005d857600080fd5b883567ffffffffffffffff80821115620005f157600080fd5b620005ff8c838d0162000419565b995060208b01359150808211156200061657600080fd5b620006248c838d0162000419565b985060408b01359150808211156200063b57600080fd5b620006498c838d0162000419565b975060608b01359150808211156200066057600080fd5b6200066e8c838d0162000419565b965060808b0135955060a08b0135945060c08b01359150808211156200069357600080fd5b620006a18c838d01620004d4565b935060e08b0135915080821115620006b857600080fd5b50620006c78b828c0162000554565b9150509295985092959890939650565b600060208284031215620006ea57600080fd5b5035919050565b6020808252825182820181905260009190848201906040850190845b81811015620007345783516001600160a01b0316835292840192918401916001016200070d565b50909695505050505050565b6000602082840312156200075357600080fd5b6200075e82620004b7565b9392505050565b6000815180845260005b818110156200078d576020818501810151868301820152016200076f565b506000602082860101526020601f19601f83011685010191505092915050565b60008151808452602080850194506020840160005b83811015620007e057815187529582019590820190600101620007c2565b509495945050505050565b6000610100808352620008018184018c62000765565b90506020838203602085015262000819828c62000765565b915083820360408501526200082f828b62000765565b9150838203606085015262000845828a62000765565b6080850189905260a0850188905284810360c08601528651808252602080890194509091019060005b81811015620008955784516001600160a01b0316835293830193918301916001016200086e565b505084810360e0860152620008ab8187620007ad565b9d9c50505050505050505050505050565b6020815260006200075e60208301846200076556fe608060405260405162001bd438038062001bd48339810160408190526200002691620006e5565b81818051825114620000bf576040517f08c379a000000000000000000000000000000000000000000000000000000000815260206004820152603260248201527f5061796d656e7453706c69747465723a2070617965657320616e64207368617260448201527f6573206c656e677468206d69736d61746368000000000000000000000000000060648201526084015b60405180910390fd5b60008251116200012c576040517f08c379a000000000000000000000000000000000000000000000000000000000815260206004820152601a60248201527f5061796d656e7453706c69747465723a206e6f207061796565730000000000006044820152606401620000b6565b60005b82518110156200018c576200018383828151811062000152576200015262000801565b60200260200101518383815181106200016f576200016f62000801565b6020026020010151620001fe60201b60201c565b6001016200012f565b50506001600755506008620001a28982620008da565b506009620001b18882620008da565b50600a620001c08782620008da565b50600b620001cf8682620008da565b50600c849055600d8390558151620001ef90600e9060208501906200045b565b505050505050505050620009e7565b6001600160a01b03821662000296576040517f08c379a000000000000000000000000000000000000000000000000000000000815260206004820152602c60248201527f5061796d656e7453706c69747465723a206163636f756e74206973207468652060448201527f7a65726f206164647265737300000000000000000000000000000000000000006064820152608401620000b6565b6000811162000302576040517f08c379a000000000000000000000000000000000000000000000000000000000815260206004820152601d60248201527f5061796d656e7453706c69747465723a207368617265732061726520300000006044820152606401620000b6565b6001600160a01b03821660009081526002602052604090205415620003aa576040517f08c379a000000000000000000000000000000000000000000000000000000000815260206004820152602b60248201527f5061796d656e7453706c69747465723a206163636f756e7420616c726561647960448201527f20686173207368617265730000000000000000000000000000000000000000006064820152608401620000b6565b60048054600181019091557f8a35acfbc15ff81a39ae7d344fd709f28e8600b4aa8c65c6b64bfe7fe36bd19b0180546001600160a01b0319166001600160a01b03841690811790915560009081526002602052604081208290555462000412908290620009a6565b600055604080516001600160a01b0384168152602081018390527f40c340f65e17194d14ddddb073d3c9f888e3cb52b5aae0c6c7706b4fbc905fac910160405180910390a15050565b828054828255906000526020600020908101928215620004b3579160200282015b82811115620004b357825182546001600160a01b0319166001600160a01b039091161782556020909201916001909101906200047c565b50620004c1929150620004c5565b5090565b5b80821115620004c15760008155600101620004c6565b7f4e487b7100000000000000000000000000000000000000000000000000000000600052604160045260246000fd5b604051601f8201601f191681016001600160401b0381118282101715620005365762000536620004dc565b604052919050565b600082601f8301126200055057600080fd5b81516001600160401b038111156200056c576200056c620004dc565b602062000582601f8301601f191682016200050b565b82815285828487010111156200059757600080fd5b60005b83811015620005b75785810183015182820184015282016200059a565b506000928101909101919091529392505050565b60006001600160401b03821115620005e757620005e7620004dc565b5060051b60200190565b600082601f8301126200060357600080fd5b815160206200061c6200061683620005cb565b6200050b565b8083825260208201915060208460051b8701019350868411156200063f57600080fd5b602086015b84811015620006745780516001600160a01b0381168114620006665760008081fd5b835291830191830162000644565b509695505050505050565b600082601f8301126200069157600080fd5b81516020620006a46200061683620005cb565b8083825260208201915060208460051b870101935086841115620006c757600080fd5b602086015b84811015620006745780518352918301918301620006cc565b600080600080600080600080610100898b0312156200070357600080fd5b88516001600160401b03808211156200071b57600080fd5b620007298c838d016200053e565b995060208b01519150808211156200074057600080fd5b6200074e8c838d016200053e565b985060408b01519150808211156200076557600080fd5b620007738c838d016200053e565b975060608b01519150808211156200078a57600080fd5b620007988c838d016200053e565b965060808b0151955060a08b0151945060c08b0151915080821115620007bd57600080fd5b620007cb8c838d01620005f1565b935060e08b0151915080821115620007e257600080fd5b50620007f18b828c016200067f565b9150509295985092959890939650565b7f4e487b7100000000000000000000000000000000000000000000000000000000600052603260045260246000fd5b600181811c908216806200084557607f821691505b6020821081036200087f577f4e487b7100000000000000000000000000000000000000000000000000000000600052602260045260246000fd5b50919050565b601f821115620008d5576000816000526020600020601f850160051c81016020861015620008b05750805b601f850160051c820191505b81811015620008d157828155600101620008bc565b5050505b505050565b81516001600160401b03811115620008f657620008f6620004dc565b6200090e8162000907845462000830565b8462000885565b602080601f8311600181146200094657600084156200092d5750858301515b600019600386901b1c1916600185901b178555620008d1565b600085815260208120601f198616915b82811015620009775788860151825594840194600190910190840162000956565b5085821015620009965787850151600019600388901b60f8161c191681555b5050505050600190811b01905550565b80820180821115620009e1577f4e487b7100000000000000000000000000000000000000000000000000000000600052601160045260246000fd5b92915050565b6111dd80620009f76000396000f3fe6080604052600436106101395760003560e01c80639852595c116100ab578063b9bc4df91161006f578063b9bc4df9146103af578063c45ac050146103b7578063ce7c2ac2146103d7578063d79779b21461040d578063e33b7de314610443578063efc654991461045857600080fd5b80639852595c146103185780639d79b5541461034e578063a3f8eace14610364578063aaef539114610384578063b80ecdd41461039a57600080fd5b8063406072a9116100fd578063406072a91461026357806348b75044146102835780635b2f515b146102a35780636bc8ecb5146102b85780638b83209b146102c057806390118fb4146102f857600080fd5b80630bfa297e1461018757806319165587146101b257806322b9e854146101d457806339ad0212146102145780633a98ef391461024457600080fd5b36610182577f6ef95f06320e7a25a04a175ca677b7052bdd97131872c2192525a629f51be77033604080516001600160a01b0390921682523460208301520160405180910390a1005b600080fd5b34801561019357600080fd5b5061019c61046d565b6040516101a99190610f40565b60405180910390f35b3480156101be57600080fd5b506101d26101cd366004610f8b565b6104fb565b005b3480156101e057600080fd5b506102046101ef366004610f8b565b60106020526000908152604090205460ff1681565b60405190151581526020016101a9565b34801561022057600080fd5b5061020461022f366004610f8b565b600f6020526000908152604090205460ff1681565b34801561025057600080fd5b506000545b6040519081526020016101a9565b34801561026f57600080fd5b5061025561027e366004610fa8565b6105eb565b34801561028f57600080fd5b506101d261029e366004610fa8565b610618565b3480156102af57600080fd5b5061019c610729565b6101d2610736565b3480156102cc57600080fd5b506102e06102db366004610fe1565b6108cd565b6040516001600160a01b0390911681526020016101a9565b34801561030457600080fd5b50610204610313366004610f8b565b6108fd565b34801561032457600080fd5b50610255610333366004610f8b565b6001600160a01b031660009081526003602052604090205490565b34801561035a57600080fd5b50610255600c5481565b34801561037057600080fd5b5061025561037f366004610f8b565b610930565b34801561039057600080fd5b50610255600d5481565b3480156103a657600080fd5b5061019c610979565b6101d2610986565b3480156103c357600080fd5b506102556103d2366004610fa8565b610ac5565b3480156103e357600080fd5b506102556103f2366004610f8b565b6001600160a01b031660009081526002602052604090205490565b34801561041957600080fd5b50610255610428366004610f8b565b6001600160a01b031660009081526005602052604090205490565b34801561044f57600080fd5b50600154610255565b34801561046457600080fd5b5061019c610b6b565b6008805461047a90610ffa565b80601f01602080910402602001604051908101604052809291908181526020018280546104a690610ffa565b80156104f35780601f106104c8576101008083540402835291602001916104f3565b820191906000526020600020905b8154815290600101906020018083116104d657829003601f168201915b505050505081565b6001600160a01b0381166000908152600260205260409020546105395760405162461bcd60e51b815260040161053090611034565b60405180910390fd5b600061054482610930565b9050806000036105665760405162461bcd60e51b81526004016105309061107a565b806001600082825461057891906110db565b90915550506001600160a01b03821660009081526003602052604090208054820190556105a58282610b78565b604080516001600160a01b0384168152602081018390527fdf20fd1e76bc69d672e4814fafb2c449bba3a5369d8359adf9e05e6fde87b056910160405180910390a15050565b6001600160a01b038083166000908152600660209081526040808320938516835292905220545b92915050565b6001600160a01b03811660009081526002602052604090205461064d5760405162461bcd60e51b815260040161053090611034565b60006106598383610ac5565b90508060000361067b5760405162461bcd60e51b81526004016105309061107a565b6001600160a01b038316600090815260056020526040812080548392906106a39084906110db565b90915550506001600160a01b0380841660009081526006602090815260408083209386168352929052208054820190556106de838383610c97565b604080516001600160a01b038481168252602082018490528516917f3be5b7a71e84ed12875d241991c70855ac5817d847039e17a9d895c1ceb0f18a910160405180910390a2505050565b6009805461047a90610ffa565b600d5434101561079a5760405162461bcd60e51b815260206004820152602960248201527f4d61726b6574706c6163653a20496e73756666696369656e742045544820666f60448201526872206c6963656e736560b81b6064820152608401610530565b3360009081526010602052604090205460ff16156108085760405162461bcd60e51b815260206004820152602560248201527f4d61726b6574706c6163653a204c6963656e736520616c7265616479206163716044820152641d5a5c995960da1b6064820152608401610530565b336000908152601060209081526040808320805460ff19166001179055600f90915290205460ff1661084f57336000908152600f60205260409020805460ff191660011790555b60005b600e548110156108945761088c600e8281548110610872576108726110ee565b6000918252602090912001546001600160a01b03166104fb565b600101610852565b5060405134815233907f1e6262773b0ac3e2d621fbf8856e4e68ec8e4d2ed0d5bda930fedb5c832789d2906020015b60405180910390a2565b6000600482815481106108e2576108e26110ee565b6000918252602090912001546001600160a01b031692915050565b6000600c5460000361091157506001919050565b506001600160a01b03166000908152600f602052604090205460ff1690565b60008061093c60015490565b6109479030316110db565b9050610972838261096d866001600160a01b031660009081526003602052604090205490565b610ce9565b9392505050565b600b805461047a90610ffa565b600c543410156109e35760405162461bcd60e51b815260206004820152602260248201527f4d61726b6574706c6163653a20496e73756666696369656e74204554482073656044820152611b9d60f21b6064820152608401610530565b336000908152600f602052604090205460ff1615610a4f5760405162461bcd60e51b8152602060048201526024808201527f4d61726b6574706c6163653a20416c62756d20616c7265616479207075726368604482015263185cd95960e21b6064820152608401610530565b336000908152600f60205260408120805460ff191660011790555b600e54811015610a9257610a8a600e8281548110610872576108726110ee565b600101610a6a565b5060405134815233907f31ac56961e6c70a5aa98adfd8efd83609dc9d548ea81e4b09d626a1be3f4cdf5906020016108c3565b6001600160a01b03821660009081526005602052604081205481906040516370a0823160e01b81523060048201526001600160a01b038616906370a0823190602401602060405180830381865afa158015610b24573d6000803e3d6000fd5b505050506040513d601f19601f82011682018060405250810190610b489190611104565b610b5291906110db565b9050610b63838261096d87876105eb565b949350505050565b600a805461047a90610ffa565b3031811115610bc95760405162461bcd60e51b815260206004820152601d60248201527f416464726573733a20696e73756666696369656e742062616c616e63650000006044820152606401610530565b6000826001600160a01b03168260405160006040518083038185875af1925050503d8060008114610c16576040519150601f19603f3d011682016040523d82523d6000602084013e610c1b565b606091505b5050905080610c925760405162461bcd60e51b815260206004820152603a60248201527f416464726573733a20756e61626c6520746f2073656e642076616c75652c207260448201527f6563697069656e74206d617920686176652072657665727465640000000000006064820152608401610530565b505050565b604080516001600160a01b038416602482015260448082018490528251808303909101815260649091019091526020810180516001600160e01b031663a9059cbb60e01b179052610c92908490610d24565b600080546001600160a01b038516825260026020526040822054839190610d10908661111d565b610d1a9190611134565b610b639190611156565b6000610d79826040518060400160405280602081526020017f5361666545524332303a206c6f772d6c6576656c2063616c6c206661696c6564815250856001600160a01b0316610df99092919063ffffffff16565b9050805160001480610d9a575080806020019051810190610d9a9190611169565b610c925760405162461bcd60e51b815260206004820152602a60248201527f5361666545524332303a204552433230206f7065726174696f6e20646964206e6044820152691bdd081cdd58d8d9595960b21b6064820152608401610530565b6060610b63848460008585600080866001600160a01b03168587604051610e20919061118b565b60006040518083038185875af1925050503d8060008114610e5d576040519150601f19603f3d011682016040523d82523d6000602084013e610e62565b606091505b5091509150610e7387838387610e7e565b979650505050505050565b60608315610eed578251600003610ee6576001600160a01b0385163b610ee65760405162461bcd60e51b815260206004820152601d60248201527f416464726573733a2063616c6c20746f206e6f6e2d636f6e74726163740000006044820152606401610530565b5081610b63565b610b638383815115610f025781518083602001fd5b8060405162461bcd60e51b81526004016105309190610f40565b60005b83811015610f37578181015183820152602001610f1f565b50506000910152565b6020815260008251806020840152610f5f816040850160208701610f1c565b601f01601f19169190910160400192915050565b6001600160a01b0381168114610f8857600080fd5b50565b600060208284031215610f9d57600080fd5b813561097281610f73565b60008060408385031215610fbb57600080fd5b8235610fc681610f73565b91506020830135610fd681610f73565b809150509250929050565b600060208284031215610ff357600080fd5b5035919050565b600181811c9082168061100e57607f821691505b60208210810361102e57634e487b7160e01b600052602260045260246000fd5b50919050565b60208082526026908201527f5061796d656e7453706c69747465723a206163636f756e7420686173206e6f2060408201526573686172657360d01b606082015260800190565b6020808252602b908201527f5061796d656e7453706c69747465723a206163636f756e74206973206e6f742060408201526a191d59481c185e5b595b9d60aa1b606082015260800190565b634e487b7160e01b600052601160045260246000fd5b80820180821115610612576106126110c5565b634e487b7160e01b600052603260045260246000fd5b60006020828403121561111657600080fd5b5051919050565b8082028115828204841417610612576106126110c5565b60008261115157634e487b7160e01b600052601260045260246000fd5b500490565b81810381811115610612576106126110c5565b60006020828403121561117b57600080fd5b8151801515811461097257600080fd5b6000825161119d818460208701610f1c565b919091019291505056fea264697066735822122042f212b3c93a86323c72b8a0b5ab2e40af1193024bf1c8f80039314cbc1ce3a864736f6c63430008180033a264697066735822122083fe005ec518a56d8dac03b6edaa1222225fb7144b685ba16e222b9812519b7364736f6c63430008180033",
  "linkReferences": {},
  "deployedLinkReferences": {}
}